:100000000C942A000C943C000C943C000C943C0092
:100010000C943C000C943C000C943C000C943C0070
:100020000C943C000C943C000C943C000C943C0060
:100030000C943C000C943C000C943C000C943C0050
:100040000C943C000C943C000C943C000C943C0040
:100050000C943C0011241FBECFE5D8E0DEBFCDBF1D
:1000600020E0A0E6B0E001C01D92A136B207E1F7A2
:100070000E94A2000C94AF000C94000080916000DC
:10008000811115C087B3816B87BBBE9880E58DB9A0
:1000900081E08EB9C49AC09A2FE738E391E02150ED
:1000A00030409040E1F700C0000080936000089568
:1000B0008FB9779BFECF8FB108951F93CF93DF93B6
:1000C000182FC62FD72FC49880E40E945800812F84
:1000D0000E9458008D2F0E9458008C2F0E945800BB
:1000E000C49ADF91CF911F910895BC0160957095DE
:1000F00080E00E945D000895BC0182E10E945D00E5
:100100000895CF93DF93C82FC49881E40E945800CC
:100110008C2F0E94580080E00E945800C82FD0E029
:10012000DC2FCC2780E00E945800C49A9E01282B27
:10013000C901DF91CF91089580E00E9481008095F0
:10014000909508950E943E0080E090E00E94750026
:1001500080E090E00E947C000E949C00FFCFF89419
:02016000FFCFCF
:00000001FF
