:100000000C942A000C943C000C943C000C943C0092
:100010000C943C000C943C000C943C000C943C0070
:100020000C943C000C943C000C943C000C943C0060
:100030000C943C000C943C000C943C000C943C0050
:100040000C943C000C943C000C943C000C943C0040
:100050000C943C0011241FBECFE5D8E0DEBFCDBF1D
:1000600020E0A0E6B0E001C01D92A036B207E1F7A3
:100070000E9466000C946B000C94000082EA87BB1F
:10008000C19A81E58DB90895C19890E49FB9779B95
:10009000FECF8FB9779BFECF6FB9779BFECFC19A0A
:1000A000089568E28AE00E94440060E080E00E94D7
:1000B000440060E081E00E94440060E082E10E9430
:1000C000440060E083E10E94440008950E943E00E5
:0A00D0000E945100FFCFF894FFCF0B
:00000001FF
