S00C0000676C63642E737265637E
S11300000C941A010C9437010C9437010C943701A9
S11300100C9437010C9437010C9437010C9437017C
S11300200C9437010C9437010C9437010C9437016C
S11300300C9437010C9437010C9437010C9437015C
S11300400C9437010C9437010C9437010C9437014C
S11300500C943701000000000000005F000000075E
S1130060000700147F147F14242A7F2A1223130804
S1130070646236495522500005030000001C2241E9
S1130080000041221C00082A1C2A0808083E08080F
S11300900050300000080808080800303000002034
S11300A0100804023E5149453E00427F400042612F
S11300B05149462141454B311814127F10274545BB
S11300C045393C4A494930017109050336494949D2
S11300D036064949291E003636000000563600000F
S11300E000081422411414141414412214080002A8
S11300F001510906324979413E7E1111117E7F4931
S11301004949363E414141227F4141221C7F4949B0
S113011049417F090901013E414151327F080808E4
S11301207F00417F41002040413F017F081422416C
S11301307F404040407F0204027F7F0408107F3EDE
S11301404141413E7F090909063E4151215E7F0933
S1130150192946464949493101017F01013F40407F
S1130160403F1F2040201F7F2018207F6314081465
S1130170630304780403615149454300007F41410E
S1130180020408102041417F0000040201020440DF
S113019040404040000102040020545454787F48F9
S11301A04444383844444420384444487F38545400
S11301B05418087E090102081454543C7F080404AE
S11301C07800447D40002040443D00007F102844D6
S11301D000417F40007C041804787C0804047838CB
S11301E0444444387C14141408081414187C7C08FF
S11301F00404084854545420043F4440203C4040E4
S1130200207C1C2040201C3C4030403C44281028CA
S1130210440C5050503C4464544C44000836410053
S113022000007F0000004136080008082A1C080866
S11302301C2A080811241FBECFE5D8E0DEBFCDBFBD
S113024010E0A0E6B0E0E6E1F5E002C005900D9212
S1130250AA3CB107D9F720E0AAECB0E001C01D9296
S1130260AC3CB207E1F70E9444020C9489020C945E
S11302700000882319F0813019F00895C698089574
S1130280C5980895882319F0813019F00895C69A05
S11302900895C59A0895CF93DF93C82F11BA12BA5F
S11302A0C19AC2980E943901C09A82E08A95F1F7F6
S11302B000C0D0B3C0988C2F0E9442018D2FDF91D3
S11302C0CF910895CF93DF93D82FC62F862F0E9406
S11302D04B0188232CF48C2F0E944B018823DCF3E0
S11302E08FEF81BB98B3997F98BB8C2F0E94390103
S11302F0D2BBC09A82E08A95F1F700C0C0988C2FD7
S11303000E944201DF91CF910895CF93C82F80912D
S1130310CB0082958695869583700E944B01882335
S1130320B4F38FEF81BBC198C29AC2BB8091CB005A
S113033082958695869583700E943901C09A82E0E1
S11303408A95F1F700C0C0988091CB00829586957C
S1130350869583700E9442018091CB008F5F8093C9
S1130360CB00CF91089587B3876687BB88B3806637
S113037088BB08950E94B30160E08FE30E9462018C
S113038061E08FE30E94620162E08FE30E946201F8
S113039008951F93CF93DF93D82FC62F8093CB005C
S11303A06093CA0060E080E40E946201C86B60E070
S11303B08C2F0E94620160E080EC0E94620161E087
S11303C080E40E94620161E08C2F0E94620161E07E
S11303D080EC0E9462011D2F1295169516951370DC
S11303E08D2F8F73612F80640E946201612F8C2F87
S11303F00E946201DF91CF911F910895CF93DF9303
S1130400D0E06D2F80E00E94C901C0E080E00E942E
S11304108501CF5FC038D1F7DF5FD83091F7DF9126
S1130420CF9108950F931F93CF93DF93805290E061
S1130430EC01CC0FDD1FCC0FDD1F8C0F9D1FEC01D9
S1130440CC5ADF4F8E010B5F1F4FFE0184910E9437
S113045085012196C017D107C1F780E00E9485016C
S1130460DF91CF911F910F910895CF93DF93EC010A
S11304708881882331F021960E941202899181118A
S1130480FBCFDF91CF9108950E94BA010E94FE0133
S113049060E080E00E94C90180E690E00E9435029D
S11304A061E080E00E94C90185E790E00E94350286
S11304B062E080E00E94C90185E790E00E94350275
S11304C063E080E00E94C9018AE890E00E9435025E
S11304D064E080E00E94C9018FE990E00E94350247
S11304E065E080E00E94C9018FE990E00E94350236
S11304F066E080E00E94C9018FE990E00E94350225
S113050067E080E00E94C90184EB90E00E9435021C
S1090510FFCFF894FFCFB9
S113051620232020202323232323232320202323B3
S113052623232323002023202020202020232020CF
S113053620202023202020202000202320202020CB
S11305462020232020202020235F5F5F5F5F002080
S1130556232020202020202320202020202020208B
S11305662020230020232020202020202320202098
S10D05762020232323232323000065
S9030000FC
