:100000000C941A010C9437010C9437010C943701AD
:100010000C9437010C9437010C9437010C94370180
:100020000C9437010C9437010C9437010C94370170
:100030000C9437010C9437010C9437010C94370160
:100040000C9437010C9437010C9437010C94370150
:100050000C943701000000000000005F0000000762
:10006000000700147F147F14242A7F2A1223130808
:10007000646236495522500005030000001C2241ED
:10008000000041221C00082A1C2A0808083E080813
:100090000050300000080808080800303000002038
:1000A000100804023E5149453E00427F4000426133
:1000B0005149462141454B311814127F10274545BF
:1000C00045393C4A494930017109050336494949D6
:1000D00036064949291E0036360000005636000013
:1000E00000081422411414141414412214080002AC
:1000F00001510906324979413E7E1111117E7F4935
:100100004949363E414141227F4141221C7F4949B4
:1001100049417F090901013E414151327F080808E8
:100120007F00417F41002040413F017F0814224170
:100130007F404040407F0204027F7F0408107F3EE2
:100140004141413E7F090909063E4151215E7F0937
:10015000192946464949493101017F01013F404083
:10016000403F1F2040201F7F2018207F6314081469
:10017000630304780403615149454300007F414112
:10018000020408102041417F0000040201020440E3
:1001900040404040000102040020545454787F48FD
:1001A0004444383844444420384444487F38545404
:1001B0005418087E090102081454543C7F080404B2
:1001C0007800447D40002040443D00007F102844DA
:1001D00000417F40007C041804787C0804047838CF
:1001E000444444387C14141408081414187C7C0803
:1001F0000404084854545420043F4440203C4040E8
:10020000207C1C2040201C3C4030403C44281028CE
:10021000440C5050503C4464544C44000836410057
:1002200000007F0000004136080008082A1C08086A
:100230001C2A080811241FBECFE5D8E0DEBFCDBFC1
:1002400010E0A0E6B0E0E8E1F5E002C005900D9214
:10025000AA3CB107D9F720E0AAECB0E001C01D929A
:10026000AC3CB207E1F70E9445020C948A020C9460
:100270000000813031F018F0823029F00895C698DE
:100280000895C5980895C7980895813031F018F001
:10029000823029F00895C69A0895C59A0895C79A9C
:1002A0000895CF93DF93C82F11BA12BAC19AC2989A
:1002B0000E943901C09A0000D0B3C0988C2F0E94D0
:1002C00045018D2FDF91CF910895CF93DF93D82FE4
:1002D000C62F862F0E94510188232CF48C2F0E9458
:1002E00051018823DCF38FEF81BB98B3997F98BBD2
:1002F0008C2F0E943901D2BBC09A0000C0988C2F6D
:100300000E944501DF91CF910895CF93C82F80912E
:10031000CB0082958695869583700E945101882333
:10032000B4F38FEF81BBC198C29AC2BB8091CB005E
:1003300082958695869583700E943901C09A000047
:10034000C0988091CB0082958695869583700E9497
:1003500045018091CB008F5F8093CB00CF910895B2
:1003600087B3876E87BB88B3806E88BB0895FC0116
:10037000849108950E94B00160E08FE30E946501BE
:1003800061E08FE30E94650162E08FE30E946501F6
:1003900008951F93CF93DF93D82FC62F8093CB0060
:1003A0006093CA0060E080E40E946501C86B60E071
:1003B0008C2F0E94650160E080EC0E94650161E085
:1003C00080E40E94650161E08C2F0E94650161E07C
:1003D00080EC0E9465011D2F1295169516951370DD
:1003E0008D2F8F73612F80640E946501612F8C2F88
:1003F0000E946501DF91CF911F910895CF93DF9304
:10040000D0E06D2F80E00E94C901C0E080E00E9432
:100410008501CF5FC038D1F7DF5FD83091F7DF912A
:10042000CF9108950F931F93CF93DF93805290E065
:10043000EC01CC0FDD1FCC0FDD1F8C0F9D1FEC01DD
:10044000CC5ADF4F8E010B5F1F4FCE010E94B701C8
:100450000E9485012196C017D107B9F780E00E945C
:100460008501DF91CF911F910F910895CF93DF9375
:10047000EC018881882331F021960E941202899133
:100480008111FBCFDF91CF9108950E94BA010E94A4
:10049000FE0160E080E00E94C90180E690E00E94D9
:1004A000360261E080E00E94C90185E790E00E9489
:1004B000360262E080E00E94C90185E790E00E9478
:1004C000360263E080E00E94C9018AE890E00E9461
:1004D000360264E080E00E94C9018FE990E00E944A
:1004E000360265E080E00E94C9018FE990E00E9439
:1004F000360266E080E00E94C9018FE990E00E9428
:10050000360267E080E00E94C90184EB90E00E941F
:080510003602FFCFF894FFCF83
:1005180020232020202323232323232320202323B5
:1005280023232323002023202020202020232020D1
:1005380020202023202020202000202320202020CD
:100548002020232020202020235F5F5F5F5F002082
:10055800232020202020202320202020202020208D
:10056800202023002023202020202020232020209A
:0A0578002020232323232323000067
:00000001FF
